:10002600E89427F810916100139510936100689485
:1000360027F80895AA9A10E010936200AA980895E6
:10004600A99A10916200139510936200A9980895D9
:1000560022971A81212F1FEF00E057D219830883B8
:100066001B811F9308811981E5E7F1E0AF91AF701D
:10007600BB27AA0FBB1FEA0FFB1F1183008308953E
:10008600C0981881E894112309F0689418B311F9FF
:1000960018BB10E012BBA898F8941FE7212219811B
:1000A600103010E009F41FEF112309F40BC0A89AD1
:1000B600000000000000000000000000000000003A
:1000C600C09A0BC0198108E0011B102FA2E3B0E013
:1000D60031D2000000000000C09A10E8212A78946E
:1000E600C198C09810E012BBA89808952397CF93A3
:1000F600DF931B811A9310E01A93C2DFDF91CF9131
:10010600CF93DF931B811A931FEF1A93B9DFDF9109
:10011600CF91E7E0F0E0FA93EA9317E0108310E05E
:100126001A9310810881011710E011F008F01FEFF3
:10013600112309F052C01E81110F110F110F110F5B
:100146001F93172D0F91100F1D831127B2991FEFC3
:10015600112309F437C01D81E4E6F0E01F7F002774
:10016600E10FF01F1081912E112774E0971610F4FD
:1001760093941FEF1D811F93192DE4E6F0E0AF91D4
:10018600AF7FBB27EA0FFB1F1083192D123010E03B
:1001960011F008F01FEF112309F414C0172D1F9357
:1001A6001E81E5E6F1E0AF91AF70BB27EA0FFB1FBA
:1001B6001083CF93DF93172D1A931F811A9348DF6D
:1001C600DF91CF91C09A0000C098E981FA81108131
:1001D6001A9510831F3F09F0A5CF239618E0712EBC
:1001E6001127B2991FEF112309F441C01B81110F8A
:1001F600110F110F110F1F93172D0F91100F1A8347
:100206001A81E4E6F0E01F7F0027E10FF01F10815E
:10021600912E112774E0971610F493941FEF1A810C
:100226001F93192DE4E6F0E0AF91AF7FBB27EA0FED
:10023600FB1F1083192D123010E011F008F01FEF8C
:10024600112309F414C0172D1F931B81E5E6F1E075
:10025600AF91AF70BB27EA0FFB1F1083CF93DF93DD
:10026600172D1A931C811A93F3DEDF91CF9108950F
:10027600249710916200193010E009F41FEF112342
:1002860009F464C0E5E0F0E0FA93EA9310E0108325
:100296001FEF1A931081088101171FEF08F011272D
:1002A600112309F013C0152D1F9310E0E4E6F0E0CA
:1002B600AF91AF7FBB27EA0FFB1F1083E981FA815D
:1002C600108113951083112309F0E5CF2396AC9A7C
:1002D6000000AC98E4E6F1E0FA93EA9310E01083AC
:1002E60018E01A931081088101171FEF08F01127F3
:1002F600112309F028C0CF93DF93109164011A935C
:10030600F5DEDF91CF91CF93DF93109164011A93BD
:10031600EDDEDF91CF91CF93DF93109164011A93B5
:10032600E5DEDF91CF91CF93DF93109164011A93AD
:10033600DDDEDF91CF91E981FA811081139510837B
:10034600112309F0D0CF239675DE01C079DE109116
:100356006200E5E7F1E01F700027110F001FE10FB3
:10036600F01F008111811983088308811981102FDC
:1003760012BB088119811170E894112309F0689461
:1003860015B310F915BB089513E017BB1CEF18BB86
:1003960017E314BB10E015BB1FEF11BB10E012BB37
:1003A6001AE0A3D010E8212A789410E014BD1EE0CC
:1003B60015BD19B7106819BF1AE097D018E213BD1A
:1003C600AA98A99810E0109361001AE010936300B0
:1003D600E5E0F0E0FA93EA9310E0108318E01A9350
:1003E6001081088101171FEF08F01127112309F06A
:1003F60011C0CF93DF93152D1A9310E01A9328DEC0
:10040600DF91CF91E981FA81108113951083112331
:1004160009F0E7CF23960895B7DF109161001030F9
:1004260010E011F008F01FEF112309F408C0CF9374
:10043600DF931EDFDF91CF9110E010936100EDCFC7
:100446000000FECFF89411E004ED1EBF0DBF11278A
:10045600E0E1F0E0A0E0B0E03196319711F01D93B5
:10046600FCCFA0E6B0E0E0E0F4E03196319711F081
:100476001D93FCCFC4E1D2E0F8941FE7212216E0D9
:100486001093600012BF13E013BF11E019BF2224BE
:100496003324C2CFEF93FF930F931F931FB71F937E
:1004A6001091600002B7100F12BF1FE721221091B2
:1004B6006300112319F011501093630010E8212AEC
:1004C6001F911FBF1F910F91FF91EF911895EF9309
:1004D600FF930F931F931FB71F93A2DD1F911FBF9B
:1004E6001F910F91FF91EF911895112331F003E1C0
:1004F6000A950000E9F71A95D1F708952150304082
:1005060018F011911D93FACF08953327222389F00D
:10051600203118F01127002708951595079508F43E
:1005260033952A95D1F7112322F4332311F00F5F67
:100536001F4F08951770E2E5F5E00024E10FF01D66
:10054600C8951C9110291C9308951895010204085A
:0405560010204080B1
:1000000024C2A6C2A5C266C2A3C2A2C2A1C2A0C285
:100010009FC243C29DC29CC29BC29AC299C298C24F
:0600200097C296C295C2D2
:00000001FF
