:100026001DE034D81AE032D80895CF93DF9318E054
:10003600212A09E418E01A930A93FE0134967DD822
:10004600DF91CF91CF93DF9318E0212A09E418E0DE
:100056001A930A930A811B81CF93DF931A930A930B
:1000660010E01A9310E01A9310E21A93689423F89A
:10007600689425F8E89434F835F801D9DF91CF91E2
:10008600DF91CF91CF93DF9318E0212A09E418E09E
:100096001A930A931BE349D9DF91CF9108952197CB
:1000A6001981E8E3F5E11F700027E10FF01F1491B5
:1000B60018831881BED7089521971981E8E2F5E1E2
:1000C6001F700027E10FF01F149118831881B1D714
:1000D6000895EFE0F0E0FA93EA9310E01083EF93CF
:1000E600FF931C81FF91EF911A93108108810117EC
:1000F6001FEF08F01127112309F010C0C1980B81DA
:100106001C81F4D7C19A0B811C81F0D7E981FA8151
:10011600108113951083112309F0E8CF23960895D3
:100126002897EBEFF0E0EF93FF931885012F112747
:10013600000F111FFF91EF91E00FF11F0191119137
:100146001B830A83E3EDF0E0EF93FF931885012FFD
:100156001127000F111FFF91EF91E00FF11F019181
:1001660011910F931F930A811B81019509F41A952A
:1001760010953F912F91020F131F1F830E830E813F
:100186001F8123E07BD90F931F930A811B813F9127
:100196002F91020F131F1D830C83EBEFF0E0EF93FB
:1001A600FF931885012F1127000F111FFF91EF9163
:1001B600E00FF11FEF93FF930C811D81FF91EF91EB
:1001C6000193119308952897E3EEF0E0EF93FF93E0
:1001D6001885012F1127000F111FFF91EF91E00FD6
:1001E600F11F019111911B830A83EBEFF0E0EF936E
:1001F600FF931885012F1127000F111FFF91EF9113
:10020600E00FF11F019111910F931F930A811B813A
:10021600019509F41A9510953F912F91020F131F1E
:100226001F830E830E811F8124E028D90F931F930D
:100236000A811B813F912F91020F131F1D830C838F
:10024600E3EEF0E0EF93FF931885012F1127000FDF
:10025600111FFF91EF91E00FF11FEF93FF930C81B8
:100266001D81FF91EF910193119308951FEF109354
:10027600F3001FEF1093F4001FEF1093F5001FEF2C
:100286001093F6001FEF1093F7001FEF1093F8007E
:100296001FEF1093F9001FEF1093FA0014E012BB42
:1002A600C09A14EF11BB11E030D7C09814E011BB0F
:1002B60000000000EDE0F0E0FA93EA9310E000E0C1
:1002C6001183008313E00FEF1A930A93A081B18183
:1002D60028813981E0E8BE273E27B31709F4A21723
:1002E60010E011F008F01FEF112309F080C014EFA1
:1002F60012BB14EF11BB0000000014E011BB14E0A8
:1003060012BB00000000C09A0000000010B3107F6E
:100316001093D1001091F7001F930091D10011277F
:1003260004FD1FEF0F911023112309F40BC00D2DAF
:100336001E2D24E0B8D80093DB001093DC0010E0FB
:100346001093F7001091F8001F930091D100112728
:1003560005FD1FEF0F911023112309F40BC00D2D7E
:100366001E2D24E0A0D80093DD001093DE0010E0DF
:100376001093F8001091F9001F930091D1001127F6
:1003860006FD1FEF0F911023112309F40BC00D2D4D
:100396001E2D24E088D80093DF001093E00010E0C3
:1003A6001093F9001091FA001F930091D1001127C4
:1003B60007FD1FEF0F911023112309F40BC00D2D1C
:1003C6001E2D24E070D80093E1001093E20010E0A7
:1003D6001093FA00C098EA81FB81A081B181119641
:1003E600A083B183B03811F4A03009F071CF249600
:1003F60008951FE217BB16E018BB14E011BB10E00E
:1004060012BB10E522D610E8212A7894CF93DF9309
:1004160018E0212A09E418E01A930A93EAEDF4E1B8
:1004260084D6DF91CF91FCDD08952397CF93DF9398
:1004360018E0212A09E418E01A930A93E0EFF4E1A0
:1004460074D6DF91CF91ECDD11DF10E001E04ED6DE
:100456000DDFEBEFF0E0EF93FF931C81012F1127E7
:10046600000F111FFF91EF91E00FF11FEF93FF9324
:10047600E3EDF0E0EF93FF931C81012F1127000FAE
:10048600111FFF91EF91E00FF11F01911191FF9163
:10049600EF9101931193C198FE013296FA93EA9374
:1004A60010E01083EF93FF931D81FF91EF911A9354
:1004B6001081088101171FEF08F01127112309F099
:1004C60013C010E001E012D6D1DECF93DF931F8177
:1004D6001A9326DEDF91CF91E981FA811081139577
:1004E6001083112309F0E5CF2396C19AEBEFF0E0D4
:1004F600EF93FF931C81012F1127000F111FFF910E
:10050600EF91E00FF11F0191119119830883E3EE3A
:10051600F0E0EF93FF931C81012F1127000F111FAD
:10052600FF91EF91E00FF11FEF93FF93088119817F
:10053600FF91EF910193119308955BDFCF93DF93C2
:1005460014E01A9312E31A9370DFDF91CF91CF93E1
:10055600DF9315E01A9312E31A9367DFDF91CF91C9
:10056600CF93DF9316E01A9312E31A935EDFDF91BF
:10057600CF91CF93DF9317E01A9312E31A9355DFC7
:10058600DF91CF91CF93DF9315E01A9310E004E645
:100596001A930A939EDDDF91CF91CF93DF9310E0FC
:1005A6001A938ADDDF91CF91EFE0F0E0FA93EA93B8
:1005B60010E0108317E01A931081088101171FEFCE
:1005C60008F01127112309F03FC0CF93DF932B9733
:1005D6002F92FE01EF93FF933196FA93EA931AE076
:1005E6001A9317EF21221FEB2122ECEFF4E19DD5A0
:1005F6001F2D105D9AD61DE398D61AE01F93188119
:100606000F91011B102FFF91EF91108323962F90CE
:10061600E8E1F5E1EF93FF931F2D012F1127000F5E
:10062600111FFF91EF91E00FF11F059114911A939D
:100636000A93FBDCDF91CF91E981FA811081139552
:100646001083112309F0B9CF2396EADC1FEF00913E
:10065600D200002309F01095112309F4ACC31AE067
:100666001093D20003DE10E01093D000EFE0F0E02C
:10067600FA93EA9314E0108317E01A931081088125
:1006860001171FEF08F01127112309F045C1CF9379
:10069600DF931F2D1A9344DDDF91CF91E8E1F5E159
:1006A600EF93FF931F2D012F1127000F111FFF91AD
:1006B600EF91E00FF11F05911491502E612EE3EE9C
:1006C600F0E0EF93FF931F2D012F1127000F111F4D
:1006D600FF91EF91E00FF11F01911191702E812E84
:1006E600EBEFF0E0EF93FF931F2D012F1127000F83
:1006F600111FFF91EF91E00FF11F019111910093EE
:10070600BD001093BE00E3EDF0E0EF93FF931F2DC5
:10071600012F1127000F111FFF91EF91E00FF11F1D
:10072600019111910093BB001093BC000091BD0094
:100736001091BE000F931F930091BB001091BC0057
:10074600019509F41A9510953F912F91020F131FE9
:100756000093C1001093C200E3E2F1E0EF93FF9330
:100766001F2D012F1127000F111FFF91EF91E00F91
:10077600F11FEF93FF93CF93DF930091C100109188
:10078600C2001A930A93052D162D1A930A9313E0A5
:1007960008EE1A930A931FEF97D4DF91CF91FF913A
:1007A600EF9101931193072D182D0F931F9300912D
:1007B600BD001091BE00019509F41A9510953F9160
:1007C6002F91020F131F902EA12ECF93DF93092D89
:1007D6001A2D1A930A93052D162D1A930A9313E0D0
:1007E60008EE1A930A931FEF6FD4DF91CF9100930F
:1007F600C3001093C400E3E1F1E0EF93FF931F2DD4
:10080600012F1127000F111FFF91EF91E00FF11F2C
:100816000091C3001091C40001931193072D182D68
:100826000F931F930091BB001091BC00019509F432
:100836001A9510953F912F91020F131F902EA12EFE
:10084600CF93DF93092D1A2D1A930A93052D162D92
:100856001A930A9313E008EE1A930A931FEF34D4FF
:10086600DF91CF91A0E81A27103809F4023110E081
:1008760011F008F01FEF112309F421C00091C30005
:100886001091C400A0E81A27103809F4023110E0CC
:1008960011F008F01FEF112309F410C0EBE0F1E0AE
:1008A600EF93FF931F2D012F1127FF91EF91E00F7B
:1008B600F11F1FEF11931FEF1093D00025C0EBE03F
:1008C600F1E0EF93FF931F2D012F1127FF91EF9179
:1008D600E00FF11F10E011931091C60013951093CD
:1008E600C6001091C6001F3310E009F41FEF112354
:1008F60009F40AC0CF93DF931F2D1A9364DCDF91AE
:10090600CF9110E01093C600E981FA81108113950A
:100916001083112309F0B3CE23960091170110918D
:1009260018010F931F930091190110911A013F911D
:100936002F91020F131F0093BF001093C000009168
:100946001701109118010F931F930091190110912F
:100956001A01019509F41A9510953F912F91020FEE
:10096600131F0093C1001093C20010910D011F9335
:1009760010910E010F91102B1093CD001091CD0008
:10098600112309F447C0CF93DF9310E00BE01A93CD
:100996000A930091C1001091C2001A930A93009124
:1009A600BF001091C0001A930A931FEF8DD3DF91F9
:1009B600CF91095F1F4F0093CB001093CC0000919D
:1009C600CB001091CC00A0E81A27103809F40030AB
:1009D6001FEF08F01127112309F406C010E000E00C
:1009E6000093CB001093CC000091C9001091CA006F
:1009F600A0E81A27103809F4013110E011F008F0C8
:100A06001FEF112309F406C010E001E10093CB00AB
:100A16001093CC0000911B0110911C010F931F93A2
:100A260000911D0110911E013F912F91020F131F7E
:100A36000093BF001093C00000911B0110911C0190
:100A46000F931F9300911D0110911E01019509F44A
:100A56001A9510953F912F91020F131F0093C10015
:100A66001093C20010910F011F93109110010F9166
:100A7600102B1093CE001091CE00112309F450C014
:100A8600CF93DF9310E00AE01A930A930091C10016
:100A96001091C2001A930A930091BF001091C000F2
:100AA6001A930A931FEF10D3DF91CF91095F1F4F5F
:100AB6000093C9001093CA000091C9001091CA00A2
:100AC600A0E81A27103809F400301FEF08F01127A4
:100AD600112309F406C010E000E00093C90010934A
:100AE600CA000091C9001091CA00A0E81A27103860
:100AF60009F4013110E011F008F01FEF112309F499
:100B060006C010E001E10093C9001093CA00CF931C
:100B1600DF931091C90016951A93C1DADF91CF9130
:100B26001091CE001095E894112309F0689418B33B
:100B360012F918BB00911F01109120010F931F930A
:100B460000912101109122013F912F91020F131F55
:100B56000093BF001093C00000911F011091200167
:100B66000F931F930091210110912201019509F421
:100B76001A9510953F912F91020F131F0093C100F4
:100B86001093C200109111011F93109112010F9141
:100B9600102B1093CF001091CF00112309F450C0F1
:100BA600CF93DF9310E00CE01A930A930091C100F3
:100BB6001091C2001A930A930091BF001091C000D1
:100BC6001A930A931FEF80D2DF91CF91095F1F4FCF
:100BD6000093C7001093C8000091C7001091C80089
:100BE600A0E81A27103809F400301FEF08F0112783
:100BF600112309F406C010E000E00093C70010932B
:100C0600C8000091C7001091C800A0E81A27103844
:100C160009F4013110E011F008F01FEF112309F477
:100C260006C010E001E10093C7001093C800CF93FF
:100C3600DF931091C70016951A933EDADF91CF9194
:100C46001091CF001095E894112309F0689418B319
:100C560011F918BBE3EBF0E01091CB001193E3EB35
:100C6600F0E031961091C9001193E3EBF0E0329673
:100C76001091C7001193E3EBF0E033961091CD008D
:100C86001193E3EBF0E034961091CE001193E3EB71
:100C9600F0E035961091CF001193E3EBF0E0369635
:100CA600EF93FF93EBEAF0E036961191FF91EF9107
:100CB6001193E3EBF0E03796EF93FF93EBEAF0E066
:100CC60037961191FF91EF911193CF93DF932B9765
:100CD6002F92FE01EF93FF933196FA93EA931AE06F
:100CE6001A9317EF21221FEB2122E3E0F5E11DD233
:100CF6001AE01F9318810F91011B102FFF91EF919E
:100D0600108323962F900091CB001091CC001A935C
:100D16000A938BD9DF91CF91CF93DF932B972F92A5
:100D2600FE01EF93FF933196FA93EA931AE01A9332
:100D360017EF21221FEB2122EAE0F5E1F6D11AE0B6
:100D46001F9318810F91011B102FFF91EF911083B4
:100D560023962F900091C9001091CA001A930A9306
:100D660064D9DF91CF91CF93DF932B972F92FE011A
:100D7600EF93FF933196FA93EA931AE01A9317EFDB
:100D860021221FEB2122E1E1F5E1CFD11AE01F93E9
:100D960018810F91011B102FFF91EF91108323965D
:100DA6002F900091C7001091C8001A930A933DD95D
:100DB600DF91CF9135D94ACC0000FECFF89411E0EF
:100DC60002E91EBF0DBF1127E0E1F0E0A0E0B0E0B0
:100DD60031960000319711F01D93FCCFA0E6B0E0EC
:100DE600E0E0F4E031960000319711F01D93FCCF5E
:100DF600C2EDD1E0F8941FE7212216E010936000BF
:100E060012BF13E013BF11E019BF18E11AB918E0B9
:100E160019B910E010BD10E0109361001093620044
:100E260010936300579A10E0109384001093850086
:100E36001093860016E810BD1CB1C29ABD9ABB9AE3
:100E4600BC98BA9A11E51DB9000000000000000028
:100E56000EB10FB110EA12B915EC16BF22243324D5
:100E66006CCBEF93FF930F931F931FB71F931091B4
:100E7600600002B7100F12BF1FE721221091D200A7
:100E8600112319F011501093D20010E8212A1F9156
:100E96001FBF1F910F91FF91EF911895EF93FF934D
:100EA6000F931F931FB71F9310918600112311F400
:100EB600559816C0009185001127E7E8F0E0E00F8D
:100EC600F11F10811CB9109186001A9510938600A7
:100ED60009F455980395003209F40027009385001C
:100EE6001F911FBF1F910F91FF91EF911895EF93DF
:100EF600FF930F931F931FB71F9310916300103238
:100F060011F40CB118C01CB11F9311270091610098
:100F1600E4E6F0E0E00FF11F1F91108310916300EB
:100F26001395109363000395003209F4002700938C
:100F360061005F99E2CF1F911FBF1F910F91FF9133
:100F4600EF911895EF93FF930F931F931FB71F937E
:100F56002F9311B11C7F103021F404ED06BF10E071
:100F660046C00091A700003091F00036C1F0083A63
:100F760071F10038C1F0083841F0083B41F1003703
:100F860071F0003981F0083901F010E030C01036F8
:100F960029F0183AE1F0103709F010E028C003B143
:100FA6000093A80024C0103A11F410E020C000916C
:100FB600A8000830E0F4EBEAF0E020E0E00FF21FD2
:100FC60003950093A80003B1019320E010C000919F
:100FD600A800083060F4E3EBF0E020E0E00FF21F39
:100FE60003950093A800019103B92FEF00C0103CB0
:100FF60009F410E01093A70015EC16BF222331F474
:101006000091A90003950093A90005C00091AA00CC
:1010160003950093AA002F911F911FBF1F910F9157
:10102600FF91EF9118951FB91EB117FFFDCF1FB1A4
:101036000895F9DF0895F89402B10E7F112309F09F
:10104600016002B927FC78940895F89402B1017002
:10105600110F102B12B927FC78940895F89400917B
:10106600A700002311F0112708C001EC112309F491
:1010760005EC06BF27FC78941FEF27FC78940895AB
:10108600112706B7047009F41FEF08950091860032
:101096000032E1F3F89400918400E7E8F0E0E00F15
:1010A6000027F01F108300918600039500938600A9
:1010B600009184000395003209F400270093840010
:1010C600559A27FC78940895112319F4E89425F885
:1010D60002C0689425F80C811D81AA81BB815CD170
:1010E600A801BF01A881B98178D10895A801112767
:1010F6004117510749F00DE316E00150104000007A
:10110600E1F741505040B9F70895112331F003E15A
:101116000A950000E9F71A95D1F708952150304055
:1011260018F011911D93FACF0895B591BB2321F0C4
:101136001591FBD0BA95E1F708951191112329F085
:10114600B12F1191F2D0BA95E1F70895AF93BF93FD
:101156001D910D916D91DF016A930A931A9388236D
:1011660019F0222309F02A95652F752F770F7A95A6
:101176000027A70FB01F1E91112319F411976A9526
:10118600D1F7662311F4119663951296332321F451
:10119600222309F040C051C0222309F02A950027D6
:1011A600DF01351780F4732F770FA70FB01F1EE2EC
:1011B6001E93361710F0632F6395762F770FDF0196
:1011C600A70FB01F28C0A70FB01F1196732F7E5F01
:1011D600271720F0022F071B039501C00027202F99
:1011E600002321F0142FA1D00A95FACF732F751B77
:1011F600652F270F882321F0182F97D0882723954E
:101206002E5F10E392D01EE290D010E37723A9F070
:101216008CD07A95FBCF621710F022270EC0261BC2
:10122600022F35FA36F468A1601708F4061B601B16
:1012360068A3142F7AD00A95E1F735FA1EF468A14F
:10124600662369F0882311F0182F6FD01E911123A1
:1012560009F06BD01E91106368D06A95B9F734FA1D
:101266002EF418A1112311F01EE25FD0BF91AF91A9
:1012760018811D9319811D931A811D930895CF938B
:10128600DF932A97AD85BE85882725FA3EF4BB23D2
:101296002AF48DE2A150B040A095B0958F938B2F84
:1012A60082958F708051382F380F8E51282F8E5C83
:1012B600082F8B2F8F70280F280F080F8751182F94
:1012C600180F180F8A2F82958F70180F080F111F8D
:1012D600001F00958894001F8A2F8F70080F331FF8
:1012E60087E0482F8AE0080F1A95E8F7180F2A9525
:1012F600E8F7280F3A95E8F7380F4A95E8F7DE0140
:10130600FF27E0E195E070E081918D937D939A95BA
:10131600D9F72C853B854A8555E08F91FE01DE0184
:101326001F9614DFDF91CF910895EF93FF9323FA71
:10133600AEF01F93E981FA811881112331F41F91D0
:10134600689421F8FF91EF9108951A9518831F91DB
:101356001193FA83E983FF91EF910895E881F9816A
:101366001F930F932F933F93AF93BF936F937F93E7
:101376004F935F938F939F9309959F918F915F9161
:101386004F917F916F91BF91AF913F912F910F91A7
:101396001F91FF91EF9108959801442725FA86F44D
:1013A600BD013702F001269F80013603F40B100DB4
:1013B600E11DF41F7203F40B100DE11DF41F0895D7
:1013C6003B9FF0012A9F80013A9F100DE11DF41FFB
:1013D6002B9F100DE11DF41F089525FA1EF0E0E085
:1013E600F0E021C0BB231AF4EFEFFFEF02C0E0E00C
:1013F600F0E0172F8F2F8727E89487FF25F8F7FF50
:1014060008C0A095B095E095F095AF5FBF4FEF4F40
:10141600FF4F77FF08C040955095609570954F5FD8
:101426005F4F6F4F7F4F1F93882799270024002710
:1014360011E2441F551F661F771F1A9571F48A0122
:101446009B0125FA46F4015010402040304020957B
:101456003095109500955F910895881F991F001C7F
:10146600001F8A1B9B0B0E0A0F0B30F48A0F9B1F63
:101476000E1E0F1F8894DDCF0894DBCF332722235F
:1014860089F0203118F01127002708951595079542
:1014960008F433952A95D1F7112322F4332311F05A
:1014A6000F5F1F4F0895222399F0203118F011275E
:1014B60000270895689422F8112312F0E89422F880
:1014C600000F111F2A95E1F71F7722FA0EF4106814
:1014D600089518951550726F78696D69747920535F
:1014E600656E736F7220546573740B43616C696229
:1014F600726174696F6E065363616C652006534CA6
:101506002032333D06534C2034353D06534C2036AD
:10151600373D640064006400640064006400640095
:101526006400FFFEFCF8F0703010000000000000C0
:101536000000FFFEFDFBF77FBFDFEF0000000000AD
:021546000000A3
:10000000E0C66ACA69CA68CA67CA66CA65CA64CAF3
:1000100063CA2AC761CA6EC744C75ECA5DCA5CCAE2
:060020005BCA93C759CA38
:00000001FF
