:10002600E5E0F0E0FA93EA9310E01083EF93FF9394
:100036001C81FF91EF911A931081088101171FEF20
:1000460008F01127112309F010C0C1980B811C81FB
:10005600B1D1C19A0B811C81ADD1E981FA811081A0
:1000660013951083112309F0E8CF2396089522975C
:10007600979896988F9A8E9A11E0ABD18F988E9812
:1000860000000000FE01FA93EA9310E000E01183FD
:10009600008313E00FEF1A930A93A081B1812881A0
:1000A6003981B31709F4A21710E011F008F01FEF19
:1000B600112309F01EC0969A8E9A000000008E98B1
:1000C6009698000000008F9A00000000112787997B
:1000D6001FEF112309F401C00CC0EA81FB81A08146
:1000E600B1811196A083B183BB2311F4AA2309F031
:1000F600D6CF24960881198108951FE217BB16E012
:1001060018BB14E011BB10E012BB10E8212A78944A
:10011600CF93DF9315E01A9310E004E61A930A933F
:100126007FDFDF91CF910895E8DFCF93DF939FDFE5
:10013600DF91CF910093A7001093A8001FEF0091C5
:10014600AB00002309F01095112309F45FC000915C
:10015600A7001091A8000F931F93CF93DF9387DF1B
:10016600DF91CF91019509F41A9510953F912F9142
:10017600020F131F0093A9001093AA001AE0109310
:10018600AB000091A9001091AA00103009F40431C7
:1001960010E011F008F01FEFE894112309F06894BD
:1001A60018B311F918BBCF93DF9318E0212A0FEB90
:1001B60011E01A930A93E6E5F6E01BD1DF91CF91A1
:1001C600CF93DF9318E0212A0FEB11E01A930A93DD
:1001D6000091A9001091AA00CF93DF931A930A9376
:1001E60010E01A9310E01A9310E21A93689423F819
:1001F600E89425F8E89434F835F89CD1DF91CF914E
:100206001DE0EED11AE0ECD1DF91CF9197CF00003F
:10021600FECFF89410E00BEE1EBF0DBF1127E0E1F4
:10022600F0E0A0E0B0E031960000319711F01D93A8
:10023600FCCFA0E6B0E0E0E0F4E0319600003197B4
:1002460011F01D93FCCFCBE2D1E0F8941FE72122F9
:1002560016E01093600012BF13E013BF11E019BF40
:1002660018E11AB913E319B910E010BD10E01093A4
:1002760061001093620010936300579A10E0109388
:100286008400109385001093860016E810BD1CB1FB
:100296002224332449CFEF93FF930F931F931FB765
:1002A6001F931091600002B7100F12BF1FE72122A3
:1002B6001091AB00112319F011501093AB0010E808
:1002C600212A1F911FBF1F910F91FF91EF91189542
:1002D600EF93FF930F931F931FB71F931091860001
:1002E600112311F4559816C0009185001127E7E8EF
:1002F600F0E0E00FF11F10811CB9109186001A95ED
:100306001093860009F455980395003209F40027E6
:10031600009385001F911FBF1F910F91FF91EF91D1
:100326001895EF93FF930F931F931FB71F93109189
:100336006300103211F40CB118C01CB11F931127C1
:1003460000916100E4E6F0E0E00FF11F1F911083D9
:10035600109163001395109363000395003209F41E
:100366000027009361005F99E2CF1F911FBF1F9185
:100376000F91FF91EF911895009186000032E1F3FD
:10038600F89400918400E7E8F0E0E00F0027F01F02
:1003960010830091860003950093860000918400E7
:1003A6000395003209F4002700938400559A27FC30
:1003B60078940895A80111274117510749F00DE3D4
:1003C60016E0015010400000E1F741505040B9F7E7
:1003D6000895112331F003E10A950000E9F71A9513
:1003E600D1F708952150304018F011911D93FACF9E
:1003F6000895B591BB2321F01591F2D0BA95E1F796
:100406000895AF93BF931D910D916D91DF016A938E
:100416000A931A93882319F0222309F02A95652F47
:10042600752F770F7A950027A70FB01F1E911123FE
:1004360019F411976A95D1F7662311F4119663950D
:100446001296332321F4222309F040C051C02223FF
:1004560009F02A950027DF01351780F4732F770FEF
:10046600A70FB01F1EE21E93361710F0632F639579
:10047600762F770FDF01A70FB01F28C0A70FB01F79
:100486001196732F7E5F271720F0022F071B039507
:1004960001C00027202F002321F0142FA1D00A9598
:1004A600FACF732F751B652F270F882321F0182F7E
:1004B60097D0882723952E5F10E392D01EE290D026
:1004C60010E37723A9F08CD07A95FBCF621710F052
:1004D60022270EC0261B022F35FA36F468A16017B4
:1004E60008F4061B601B68A3142F7AD00A95E1F75F
:1004F60035FA1EF468A1662369F0882311F0182FD7
:100506006FD01E91112309F06BD01E91106368D035
:100516006A95B9F734FA2EF418A1112311F01EE2E8
:100526005FD0BF91AF9118811D9319811D931A81D8
:100536001D930895CF93DF932A97AD85BE858827AF
:1005460025FA3EF4BB232AF48DE2A150B040A095D3
:10055600B0958F938B2F82958F708051382F380FDF
:100566008E51282F8E5C082F8B2F8F70280F280F07
:10057600080F8751182F180F180F8A2F82958F7022
:10058600180F080F111F001F00958894001F8A2F4F
:100596008F70080F331F87E0482F8AE0080F1A95DF
:1005A600E8F7180F2A95E8F7280F3A95E8F7380F75
:1005B6004A95E8F7DE01FF27E0E195E070E08191DA
:1005C6008D937D939A95D9F72C853B854A8555E081
:1005D6008F91FE01DE011F9614DFDF91CF91089502
:1005E600EF93FF9323FAAEF01F93E981FA81188106
:1005F600112331F41F91689421F8FF91EF9108952A
:100606001A9518831F911193FA83E983FF91EF914D
:100616000895E881F9811F930F932F933F93AF932A
:10062600BF936F937F934F935F938F939F93099598
:100636009F918F915F914F917F916F91BF91AF91F4
:100646003F912F910F911F91FF91EF91089518956A
:06065600055356414C3D26
:100000000BC128C327C326C325C324C323C322C3CC
:1000100021C344C11FC388C15EC11CC31BC31AC313
:0600200019C318C317C349
:00000001FF
